{
  "_format": "hh-sol-artifact-1",
  "contractName": "RWASecurityToken",
  "sourceName": "contracts/tokens/RWASecurityToken.sol",
  "abi": [
    {
      "inputs": [
        {
          "internalType": "string",
          "name": "name",
          "type": "string"
        },
        {
          "internalType": "string",
          "name": "symbol",
          "type": "string"
        },
        {
          "internalType": "address",
          "name": "_assetRegistry",
          "type": "address"
        },
        {
          "internalType": "bytes32",
          "name": "_assetFingerprint",
          "type": "bytes32"
        },
        {
          "internalType": "string",
          "name": "_assetDescription",
          "type": "string"
        },
        {
          "internalType": "uint256",
          "name": "_totalAssetValue",
          "type": "uint256"
        }
      ],
      "stateMutability": "nonpayable",
      "type": "constructor"
    },
    {
      "inputs": [],
      "name": "AccessControlBadConfirmation",
      "type": "error"
    },
    {
      "inputs": [
        {
          "internalType": "address",
          "name": "account",
          "type": "address"
        },
        {
          "internalType": "bytes32",
          "name": "neededRole",
          "type": "bytes32"
        }
      ],
      "name": "AccessControlUnauthorizedAccount",
      "type": "error"
    },
    {
      "inputs": [
        {
          "internalType": "address",
          "name": "spender",
          "type": "address"
        },
        {
          "internalType": "uint256",
          "name": "allowance",
          "type": "uint256"
        },
        {
          "internalType": "uint256",
          "name": "needed",
          "type": "uint256"
        }
      ],
      "name": "ERC20InsufficientAllowance",
      "type": "error"
    },
    {
      "inputs": [
        {
          "internalType": "address",
          "name": "sender",
          "type": "address"
        },
        {
          "internalType": "uint256",
          "name": "balance",
          "type": "uint256"
        },
        {
          "internalType": "uint256",
          "name": "needed",
          "type": "uint256"
        }
      ],
      "name": "ERC20InsufficientBalance",
      "type": "error"
    },
    {
      "inputs": [
        {
          "internalType": "address",
          "name": "approver",
          "type": "address"
        }
      ],
      "name": "ERC20InvalidApprover",
      "type": "error"
    },
    {
      "inputs": [
        {
          "internalType": "address",
          "name": "receiver",
          "type": "address"
        }
      ],
      "name": "ERC20InvalidReceiver",
      "type": "error"
    },
    {
      "inputs": [
        {
          "internalType": "address",
          "name": "sender",
          "type": "address"
        }
      ],
      "name": "ERC20InvalidSender",
      "type": "error"
    },
    {
      "inputs": [
        {
          "internalType": "address",
          "name": "spender",
          "type": "address"
        }
      ],
      "name": "ERC20InvalidSpender",
      "type": "error"
    },
    {
      "inputs": [],
      "name": "ReentrancyGuardReentrantCall",
      "type": "error"
    },
    {
      "anonymous": false,
      "inputs": [
        {
          "indexed": true,
          "internalType": "address",
          "name": "owner",
          "type": "address"
        },
        {
          "indexed": true,
          "internalType": "address",
          "name": "spender",
          "type": "address"
        },
        {
          "indexed": false,
          "internalType": "uint256",
          "name": "value",
          "type": "uint256"
        }
      ],
      "name": "Approval",
      "type": "event"
    },
    {
      "anonymous": false,
      "inputs": [
        {
          "indexed": false,
          "internalType": "string",
          "name": "rule",
          "type": "string"
        },
        {
          "indexed": false,
          "internalType": "uint256",
          "name": "value",
          "type": "uint256"
        }
      ],
      "name": "ComplianceRuleUpdated",
      "type": "event"
    },
    {
      "anonymous": false,
      "inputs": [
        {
          "indexed": true,
          "internalType": "address",
          "name": "from",
          "type": "address"
        },
        {
          "indexed": true,
          "internalType": "address",
          "name": "to",
          "type": "address"
        },
        {
          "indexed": false,
          "internalType": "uint256",
          "name": "amount",
          "type": "uint256"
        },
        {
          "indexed": true,
          "internalType": "address",
          "name": "agent",
          "type": "address"
        }
      ],
      "name": "ForcedTransfer",
      "type": "event"
    },
    {
      "anonymous": false,
      "inputs": [
        {
          "indexed": true,
          "internalType": "address",
          "name": "investor",
          "type": "address"
        },
        {
          "indexed": false,
          "internalType": "bool",
          "name": "verified",
          "type": "bool"
        }
      ],
      "name": "InvestorVerified",
      "type": "event"
    },
    {
      "anonymous": false,
      "inputs": [
        {
          "indexed": true,
          "internalType": "bytes32",
          "name": "role",
          "type": "bytes32"
        },
        {
          "indexed": true,
          "internalType": "bytes32",
          "name": "previousAdminRole",
          "type": "bytes32"
        },
        {
          "indexed": true,
          "internalType": "bytes32",
          "name": "newAdminRole",
          "type": "bytes32"
        }
      ],
      "name": "RoleAdminChanged",
      "type": "event"
    },
    {
      "anonymous": false,
      "inputs": [
        {
          "indexed": true,
          "internalType": "bytes32",
          "name": "role",
          "type": "bytes32"
        },
        {
          "indexed": true,
          "internalType": "address",
          "name": "account",
          "type": "address"
        },
        {
          "indexed": true,
          "internalType": "address",
          "name": "sender",
          "type": "address"
        }
      ],
      "name": "RoleGranted",
      "type": "event"
    },
    {
      "anonymous": false,
      "inputs": [
        {
          "indexed": true,
          "internalType": "bytes32",
          "name": "role",
          "type": "bytes32"
        },
        {
          "indexed": true,
          "internalType": "address",
          "name": "account",
          "type": "address"
        },
        {
          "indexed": true,
          "internalType": "address",
          "name": "sender",
          "type": "address"
        }
      ],
      "name": "RoleRevoked",
      "type": "event"
    },
    {
      "anonymous": false,
      "inputs": [
        {
          "indexed": true,
          "internalType": "address",
          "name": "from",
          "type": "address"
        },
        {
          "indexed": true,
          "internalType": "address",
          "name": "to",
          "type": "address"
        },
        {
          "indexed": false,
          "internalType": "uint256",
          "name": "value",
          "type": "uint256"
        }
      ],
      "name": "Transfer",
      "type": "event"
    },
    {
      "anonymous": false,
      "inputs": [
        {
          "indexed": true,
          "internalType": "address",
          "name": "wallet",
          "type": "address"
        },
        {
          "indexed": false,
          "internalType": "bool",
          "name": "frozen",
          "type": "bool"
        }
      ],
      "name": "WalletFrozen",
      "type": "event"
    },
    {
      "inputs": [],
      "name": "AGENT_ROLE",
      "outputs": [
        {
          "internalType": "bytes32",
          "name": "",
          "type": "bytes32"
        }
      ],
      "stateMutability": "view",
      "type": "function"
    },
    {
      "inputs": [],
      "name": "COMPLIANCE_ROLE",
      "outputs": [
        {
          "internalType": "bytes32",
          "name": "",
          "type": "bytes32"
        }
      ],
      "stateMutability": "view",
      "type": "function"
    },
    {
      "inputs": [],
      "name": "DEFAULT_ADMIN_ROLE",
      "outputs": [
        {
          "internalType": "bytes32",
          "name": "",
          "type": "bytes32"
        }
      ],
      "stateMutability": "view",
      "type": "function"
    },
    {
      "inputs": [],
      "name": "MINTER_ROLE",
      "outputs": [
        {
          "internalType": "bytes32",
          "name": "",
          "type": "bytes32"
        }
      ],
      "stateMutability": "view",
      "type": "function"
    },
    {
      "inputs": [
        {
          "internalType": "address",
          "name": "owner",
          "type": "address"
        },
        {
          "internalType": "address",
          "name": "spender",
          "type": "address"
        }
      ],
      "name": "allowance",
      "outputs": [
        {
          "internalType": "uint256",
          "name": "",
          "type": "uint256"
        }
      ],
      "stateMutability": "view",
      "type": "function"
    },
    {
      "inputs": [
        {
          "internalType": "address",
          "name": "spender",
          "type": "address"
        },
        {
          "internalType": "uint256",
          "name": "value",
          "type": "uint256"
        }
      ],
      "name": "approve",
      "outputs": [
        {
          "internalType": "bool",
          "name": "",
          "type": "bool"
        }
      ],
      "stateMutability": "nonpayable",
      "type": "function"
    },
    {
      "inputs": [],
      "name": "assetFingerprint",
      "outputs": [
        {
          "internalType": "bytes32",
          "name": "",
          "type": "bytes32"
        }
      ],
      "stateMutability": "view",
      "type": "function"
    },
    {
      "inputs": [],
      "name": "assetRegistry",
      "outputs": [
        {
          "internalType": "address",
          "name": "",
          "type": "address"
        }
      ],
      "stateMutability": "view",
      "type": "function"
    },
    {
      "inputs": [
        {
          "internalType": "address",
          "name": "account",
          "type": "address"
        }
      ],
      "name": "balanceOf",
      "outputs": [
        {
          "internalType": "uint256",
          "name": "",
          "type": "uint256"
        }
      ],
      "stateMutability": "view",
      "type": "function"
    },
    {
      "inputs": [
        {
          "internalType": "uint256",
          "name": "amount",
          "type": "uint256"
        }
      ],
      "name": "burn",
      "outputs": [],
      "stateMutability": "nonpayable",
      "type": "function"
    },
    {
      "inputs": [],
      "name": "currentInvestorsCount",
      "outputs": [
        {
          "internalType": "uint256",
          "name": "",
          "type": "uint256"
        }
      ],
      "stateMutability": "view",
      "type": "function"
    },
    {
      "inputs": [],
      "name": "decimals",
      "outputs": [
        {
          "internalType": "uint8",
          "name": "",
          "type": "uint8"
        }
      ],
      "stateMutability": "view",
      "type": "function"
    },
    {
      "inputs": [
        {
          "internalType": "address",
          "name": "from",
          "type": "address"
        },
        {
          "internalType": "address",
          "name": "to",
          "type": "address"
        },
        {
          "internalType": "uint256",
          "name": "amount",
          "type": "uint256"
        },
        {
          "internalType": "string",
          "name": "reason",
          "type": "string"
        }
      ],
      "name": "forcedTransfer",
      "outputs": [],
      "stateMutability": "nonpayable",
      "type": "function"
    },
    {
      "inputs": [
        {
          "internalType": "address",
          "name": "wallet",
          "type": "address"
        },
        {
          "internalType": "bool",
          "name": "frozen",
          "type": "bool"
        }
      ],
      "name": "freezeWallet",
      "outputs": [],
      "stateMutability": "nonpayable",
      "type": "function"
    },
    {
      "inputs": [
        {
          "internalType": "address",
          "name": "",
          "type": "address"
        }
      ],
      "name": "frozenWallets",
      "outputs": [
        {
          "internalType": "bool",
          "name": "",
          "type": "bool"
        }
      ],
      "stateMutability": "view",
      "type": "function"
    },
    {
      "inputs": [
        {
          "internalType": "bytes32",
          "name": "role",
          "type": "bytes32"
        }
      ],
      "name": "getRoleAdmin",
      "outputs": [
        {
          "internalType": "bytes32",
          "name": "",
          "type": "bytes32"
        }
      ],
      "stateMutability": "view",
      "type": "function"
    },
    {
      "inputs": [
        {
          "internalType": "bytes32",
          "name": "role",
          "type": "bytes32"
        },
        {
          "internalType": "address",
          "name": "account",
          "type": "address"
        }
      ],
      "name": "grantRole",
      "outputs": [],
      "stateMutability": "nonpayable",
      "type": "function"
    },
    {
      "inputs": [
        {
          "internalType": "bytes32",
          "name": "role",
          "type": "bytes32"
        },
        {
          "internalType": "address",
          "name": "account",
          "type": "address"
        }
      ],
      "name": "hasRole",
      "outputs": [
        {
          "internalType": "bool",
          "name": "",
          "type": "bool"
        }
      ],
      "stateMutability": "view",
      "type": "function"
    },
    {
      "inputs": [
        {
          "internalType": "address",
          "name": "",
          "type": "address"
        }
      ],
      "name": "isInvestor",
      "outputs": [
        {
          "internalType": "bool",
          "name": "",
          "type": "bool"
        }
      ],
      "stateMutability": "view",
      "type": "function"
    },
    {
      "inputs": [],
      "name": "maxInvestorsCount",
      "outputs": [
        {
          "internalType": "uint256",
          "name": "",
          "type": "uint256"
        }
      ],
      "stateMutability": "view",
      "type": "function"
    },
    {
      "inputs": [
        {
          "internalType": "address",
          "name": "to",
          "type": "address"
        },
        {
          "internalType": "uint256",
          "name": "amount",
          "type": "uint256"
        }
      ],
      "name": "mint",
      "outputs": [],
      "stateMutability": "nonpayable",
      "type": "function"
    },
    {
      "inputs": [],
      "name": "name",
      "outputs": [
        {
          "internalType": "string",
          "name": "",
          "type": "string"
        }
      ],
      "stateMutability": "view",
      "type": "function"
    },
    {
      "inputs": [],
      "name": "navPerToken",
      "outputs": [
        {
          "internalType": "uint256",
          "name": "",
          "type": "uint256"
        }
      ],
      "stateMutability": "view",
      "type": "function"
    },
    {
      "inputs": [
        {
          "internalType": "bool",
          "name": "paused",
          "type": "bool"
        }
      ],
      "name": "pause",
      "outputs": [],
      "stateMutability": "nonpayable",
      "type": "function"
    },
    {
      "inputs": [
        {
          "internalType": "bytes32",
          "name": "role",
          "type": "bytes32"
        },
        {
          "internalType": "address",
          "name": "callerConfirmation",
          "type": "address"
        }
      ],
      "name": "renounceRole",
      "outputs": [],
      "stateMutability": "nonpayable",
      "type": "function"
    },
    {
      "inputs": [
        {
          "internalType": "bytes32",
          "name": "role",
          "type": "bytes32"
        },
        {
          "internalType": "address",
          "name": "account",
          "type": "address"
        }
      ],
      "name": "revokeRole",
      "outputs": [],
      "stateMutability": "nonpayable",
      "type": "function"
    },
    {
      "inputs": [
        {
          "internalType": "bytes4",
          "name": "interfaceId",
          "type": "bytes4"
        }
      ],
      "name": "supportsInterface",
      "outputs": [
        {
          "internalType": "bool",
          "name": "",
          "type": "bool"
        }
      ],
      "stateMutability": "view",
      "type": "function"
    },
    {
      "inputs": [],
      "name": "symbol",
      "outputs": [
        {
          "internalType": "string",
          "name": "",
          "type": "string"
        }
      ],
      "stateMutability": "view",
      "type": "function"
    },
    {
      "inputs": [],
      "name": "tokenInfo",
      "outputs": [
        {
          "internalType": "string",
          "name": "assetDescription",
          "type": "string"
        },
        {
          "internalType": "uint256",
          "name": "totalAssetValue",
          "type": "uint256"
        },
        {
          "internalType": "uint256",
          "name": "creationDate",
          "type": "uint256"
        },
        {
          "internalType": "bool",
          "name": "paused",
          "type": "bool"
        }
      ],
      "stateMutability": "view",
      "type": "function"
    },
    {
      "inputs": [],
      "name": "totalSupply",
      "outputs": [
        {
          "internalType": "uint256",
          "name": "",
          "type": "uint256"
        }
      ],
      "stateMutability": "view",
      "type": "function"
    },
    {
      "inputs": [
        {
          "internalType": "address",
          "name": "to",
          "type": "address"
        },
        {
          "internalType": "uint256",
          "name": "value",
          "type": "uint256"
        }
      ],
      "name": "transfer",
      "outputs": [
        {
          "internalType": "bool",
          "name": "",
          "type": "bool"
        }
      ],
      "stateMutability": "nonpayable",
      "type": "function"
    },
    {
      "inputs": [
        {
          "internalType": "address",
          "name": "from",
          "type": "address"
        },
        {
          "internalType": "address",
          "name": "to",
          "type": "address"
        },
        {
          "internalType": "uint256",
          "name": "value",
          "type": "uint256"
        }
      ],
      "name": "transferFrom",
      "outputs": [
        {
          "internalType": "bool",
          "name": "",
          "type": "bool"
        }
      ],
      "stateMutability": "nonpayable",
      "type": "function"
    },
    {
      "inputs": [
        {
          "internalType": "uint256",
          "name": "newNAV",
          "type": "uint256"
        }
      ],
      "name": "updateNAV",
      "outputs": [],
      "stateMutability": "nonpayable",
      "type": "function"
    },
    {
      "inputs": [
        {
          "internalType": "address",
          "name": "",
          "type": "address"
        }
      ],
      "name": "verifiedInvestors",
      "outputs": [
        {
          "internalType": "bool",
          "name": "",
          "type": "bool"
        }
      ],
      "stateMutability": "view",
      "type": "function"
    },
    {
      "inputs": [
        {
          "internalType": "address",
          "name": "investor",
          "type": "address"
        },
        {
          "internalType": "bool",
          "name": "verified",
          "type": "bool"
        }
      ],
      "name": "verifyInvestor",
      "outputs": [],
      "stateMutability": "nonpayable",
      "type": "function"
    }
  ],
  "bytecode": "0x60806040523480156200001157600080fd5b506040516200357838038062003578833981810160405281019062000037919062000567565b858581600390816200004a9190620008a1565b5080600490816200005c9190620008a1565b50505060016006819055506200007c6000801b336200018260201b60201c565b50620000af7f9f2df0fed2c77648de5860a4cc508cd0818c85b8b8a1ab4ceeef8d981c8956a6336200018260201b60201c565b5083600760006101000a81548173ffffffffffffffffffffffffffffffffffffffff021916908373ffffffffffffffffffffffffffffffffffffffff16021790555082600881905550604051806080016040528083815260200182815260200142815260200160001515815250600e6000820151816000019081620001359190620008a1565b50602082015181600101556040820151816002015560608201518160030160006101000a81548160ff0219169083151502179055509050506107d0600b8190555050505050505062000988565b60006200019683836200028660201b60201c565b6200027b5760016005600085815260200190815260200160002060000160008473ffffffffffffffffffffffffffffffffffffffff1673ffffffffffffffffffffffffffffffffffffffff16815260200190815260200160002060006101000a81548160ff02191690831515021790555062000217620002f160201b60201c565b73ffffffffffffffffffffffffffffffffffffffff168273ffffffffffffffffffffffffffffffffffffffff16847f2f8788117e7eff1d82e926ec794901d17c78024a50270940304540a733656f0d60405160405180910390a46001905062000280565b600090505b92915050565b60006005600084815260200190815260200160002060000160008373ffffffffffffffffffffffffffffffffffffffff1673ffffffffffffffffffffffffffffffffffffffff16815260200190815260200160002060009054906101000a900460ff16905092915050565b600033905090565b6000604051905090565b600080fd5b600080fd5b600080fd5b600080fd5b6000601f19601f8301169050919050565b7f4e487b7100000000000000000000000000000000000000000000000000000000600052604160045260246000fd5b620003628262000317565b810181811067ffffffffffffffff8211171562000384576200038362000328565b5b80604052505050565b600062000399620002f9565b9050620003a7828262000357565b919050565b600067ffffffffffffffff821115620003ca57620003c962000328565b5b620003d58262000317565b9050602081019050919050565b60005b8381101562000402578082015181840152602081019050620003e5565b60008484015250505050565b6000620004256200041f84620003ac565b6200038d565b90508281526020810184848401111562000444576200044362000312565b5b62000451848285620003e2565b509392505050565b600082601f8301126200047157620004706200030d565b5b8151620004838482602086016200040e565b91505092915050565b600073ffffffffffffffffffffffffffffffffffffffff82169050919050565b6000620004b9826200048c565b9050919050565b620004cb81620004ac565b8114620004d757600080fd5b50565b600081519050620004eb81620004c0565b92915050565b6000819050919050565b6200050681620004f1565b81146200051257600080fd5b50565b6000815190506200052681620004fb565b92915050565b6000819050919050565b62000541816200052c565b81146200054d57600080fd5b50565b600081519050620005618162000536565b92915050565b60008060008060008060c0878903121562000587576200058662000303565b5b600087015167ffffffffffffffff811115620005a857620005a762000308565b5b620005b689828a0162000459565b965050602087015167ffffffffffffffff811115620005da57620005d962000308565b5b620005e889828a0162000459565b9550506040620005fb89828a01620004da565b94505060606200060e89828a0162000515565b935050608087015167ffffffffffffffff81111562000632576200063162000308565b5b6200064089828a0162000459565b92505060a06200065389828a0162000550565b9150509295509295509295565b600081519050919050565b7f4e487b7100000000000000000000000000000000000000000000000000000000600052602260045260246000fd5b60006002820490506001821680620006b357607f821691505b602082108103620006c957620006c86200066b565b5b50919050565b60008190508160005260206000209050919050565b60006020601f8301049050919050565b600082821b905092915050565b600060088302620007337fffffffffffffffffffffffffffffffffffffffffffffffffffffffffffffffff82620006f4565b6200073f8683620006f4565b95508019841693508086168417925050509392505050565b6000819050919050565b6000620007826200077c62000776846200052c565b62000757565b6200052c565b9050919050565b6000819050919050565b6200079e8362000761565b620007b6620007ad8262000789565b84845462000701565b825550505050565b600090565b620007cd620007be565b620007da81848462000793565b505050565b5b818110156200080257620007f6600082620007c3565b600181019050620007e0565b5050565b601f82111562000851576200081b81620006cf565b6200082684620006e4565b8101602085101562000836578190505b6200084e6200084585620006e4565b830182620007df565b50505b505050565b600082821c905092915050565b6000620008766000198460080262000856565b1980831691505092915050565b600062000891838362000863565b9150826002028217905092915050565b620008ac8262000660565b67ffffffffffffffff811115620008c857620008c762000328565b5b620008d482546200069a565b620008e182828562000806565b600060209050601f83116001811462000919576000841562000904578287015190505b62000910858262000883565b86555062000980565b601f1984166200092986620006cf565b60005b8281101562000953578489015182556001820191506020850194506020810190506200092c565b868310156200097357848901516200096f601f89168262000863565b8355505b6001600288020188555050505b505050505050565b612be080620009986000396000f3fe608060405234801561001057600080fd5b50600436106102115760003560e01c80633ad8b2d71161012557806395d89b41116100ad578063a9059cbb1161007c578063a9059cbb1461061b578063cee2a9cf1461064b578063d53913931461067b578063d547741f14610699578063dd62ed3e146106b557610211565b806395d89b41146105a3578063979d7e86146105c1578063a036f25b146105df578063a217fddf146105fd57610211565b80635958aa3c116100f45780635958aa3c146104d65780636addb663146104f257806370a0823114610513578063718494031461054357806391d148541461057357610211565b80633ad8b2d71461046657806340c10f191461048257806342966c681461049e578063533020bb146104ba57610211565b806318160ddd116101a8578063248a9ca311610177578063248a9ca3146103b05780632f2ff15d146103e0578063313ce567146103fc578063328f69361461041a57806336568abe1461044a57610211565b806318160ddd1461032657806318d59ef21461034457806322459e181461036257806323b872dd1461038057610211565b8063095ea7b3116101e4578063095ea7b31461029e578063096f9d19146102ce5780630cb1982b146102ec5780630f671db11461030857610211565b806301ffc9a71461021657806302329a2914610246578063062d3bd71461026257806306fdde0314610280575b600080fd5b610230600480360381019061022b91906120ec565b6106e5565b60405161023d9190612134565b60405180910390f35b610260600480360381019061025b919061217b565b61075f565b005b61026a61078d565b60405161027791906121c1565b60405180910390f35b6102886107b1565b604051610295919061226c565b60405180910390f35b6102b860048036038101906102b39190612322565b610843565b6040516102c59190612134565b60405180910390f35b6102d6610866565b6040516102e39190612371565b60405180910390f35b6103066004803603810190610301919061238c565b61086c565b005b610310610887565b60405161031d91906121c1565b60405180910390f35b61032e61088d565b60405161033b9190612371565b60405180910390f35b61034c610897565b6040516103599190612371565b60405180910390f35b61036a61089d565b60405161037791906121c1565b60405180910390f35b61039a600480360381019061039591906123b9565b6108c1565b6040516103a79190612134565b60405180910390f35b6103ca60048036038101906103c59190612438565b6108f0565b6040516103d791906121c1565b60405180910390f35b6103fa60048036038101906103f59190612465565b610910565b005b610404610932565b60405161041191906124c1565b60405180910390f35b610434600480360381019061042f91906124dc565b61093b565b6040516104419190612134565b60405180910390f35b610464600480360381019061045f9190612465565b61095b565b005b610480600480360381019061047b919061256e565b6109d6565b005b61049c60048036038101906104979190612322565b610ad5565b005b6104b860048036038101906104b3919061238c565b610da0565b005b6104d460048036038101906104cf91906125f6565b610ed7565b005b6104f060048036038101906104eb91906125f6565b610fab565b005b6104fa61107f565b60405161050a9493929190612636565b60405180910390f35b61052d600480360381019061052891906124dc565b611132565b60405161053a9190612371565b60405180910390f35b61055d600480360381019061055891906124dc565b61117a565b60405161056a9190612134565b60405180910390f35b61058d60048036038101906105889190612465565b61119a565b60405161059a9190612134565b60405180910390f35b6105ab611205565b6040516105b8919061226c565b60405180910390f35b6105c9611297565b6040516105d69190612691565b60405180910390f35b6105e76112bd565b6040516105f49190612371565b60405180910390f35b610605611307565b60405161061291906121c1565b60405180910390f35b61063560048036038101906106309190612322565b61130e565b6040516106429190612134565b60405180910390f35b610665600480360381019061066091906124dc565b611331565b6040516106729190612134565b60405180910390f35b610683611351565b60405161069091906121c1565b60405180910390f35b6106b360048036038101906106ae9190612465565b611375565b005b6106cf60048036038101906106ca91906126ac565b611397565b6040516106dc9190612371565b60405180910390f35b60007f7965db0b000000000000000000000000000000000000000000000000000000007bffffffffffffffffffffffffffffffffffffffffffffffffffffffff1916827bffffffffffffffffffffffffffffffffffffffffffffffffffffffff1916148061075857506107578261141e565b5b9050919050565b6000801b61076c81611488565b81600e60030160006101000a81548160ff0219169083151502179055505050565b7f442a94f1a1fac79af32856af2a64f63648cfa2ef3b98610a5bb7cbec4cee698581565b6060600380546107c09061271b565b80601f01602080910402602001604051908101604052809291908181526020018280546107ec9061271b565b80156108395780601f1061080e57610100808354040283529160200191610839565b820191906000526020600020905b81548152906001019060200180831161081c57829003601f168201915b5050505050905090565b60008061084e61149c565b905061085b8185856114a4565b600191505092915050565b600c5481565b6000801b61087981611488565b81600e600101819055505050565b60085481565b6000600254905090565b600b5481565b7fcab5a0bfe0b79d2c4b1c2e02599fa044d115b7511f9659307cb427695096770981565b6000806108cc61149c565b90506108d98582856114b6565b6108e485858561154b565b60019150509392505050565b600060056000838152602001908152602001600020600101549050919050565b610919826108f0565b61092281611488565b61092c838361163f565b50505050565b60006012905090565b60096020528060005260406000206000915054906101000a900460ff1681565b61096361149c565b73ffffffffffffffffffffffffffffffffffffffff168173ffffffffffffffffffffffffffffffffffffffff16146109c7576040517f6697b23200000000000000000000000000000000000000000000000000000000815260040160405180910390fd5b6109d18282611731565b505050565b7fcab5a0bfe0b79d2c4b1c2e02599fa044d115b7511f9659307cb4276950967709610a0081611488565b60008383905011610a46576040517f08c379a0000000000000000000000000000000000000000000000000000000008152600401610a3d90612798565b60405180910390fd5b610a51868686611824565b3373ffffffffffffffffffffffffffffffffffffffff168573ffffffffffffffffffffffffffffffffffffffff168773ffffffffffffffffffffffffffffffffffffffff167f31a05a6a55253f32ca1a2eae200ad7ddf38d17e9f6e0535e9a85ab4a218aeaa387604051610ac59190612371565b60405180910390a4505050505050565b7f9f2df0fed2c77648de5860a4cc508cd0818c85b8b8a1ab4ceeef8d981c8956a6610aff81611488565b610b076118ee565b600e60030160009054906101000a900460ff1615610b5a576040517f08c379a0000000000000000000000000000000000000000000000000000000008152600401610b5190612804565b60405180910390fd5b600960008473ffffffffffffffffffffffffffffffffffffffff1673ffffffffffffffffffffffffffffffffffffffff16815260200190815260200160002060009054906101000a900460ff16610be6576040517f08c379a0000000000000000000000000000000000000000000000000000000008152600401610bdd90612870565b60405180910390fd5b600a60008473ffffffffffffffffffffffffffffffffffffffff1673ffffffffffffffffffffffffffffffffffffffff16815260200190815260200160002060009054906101000a900460ff1615610c73576040517f08c379a0000000000000000000000000000000000000000000000000000000008152600401610c6a906128dc565b60405180910390fd5b600d60008473ffffffffffffffffffffffffffffffffffffffff1673ffffffffffffffffffffffffffffffffffffffff16815260200190815260200160002060009054906101000a900460ff16158015610ccd5750600082115b15610d8957600b54600c5410610d18576040517f08c379a0000000000000000000000000000000000000000000000000000000008152600401610d0f90612948565b60405180910390fd5b6001600d60008573ffffffffffffffffffffffffffffffffffffffff1673ffffffffffffffffffffffffffffffffffffffff16815260200190815260200160002060006101000a81548160ff021916908315150217905550600c6000815480929190610d8390612997565b91905055505b610d938383611934565b610d9b6119b6565b505050565b600e60030160009054906101000a900460ff1615610df3576040517f08c379a0000000000000000000000000000000000000000000000000000000008152600401610dea90612804565b60405180910390fd5b610dfd33826119c0565b6000610e0833611132565b148015610e5e5750600d60003373ffffffffffffffffffffffffffffffffffffffff1673ffffffffffffffffffffffffffffffffffffffff16815260200190815260200160002060009054906101000a900460ff165b15610ed4576000600d60003373ffffffffffffffffffffffffffffffffffffffff1673ffffffffffffffffffffffffffffffffffffffff16815260200190815260200160002060006101000a81548160ff021916908315150217905550600c6000815480929190610ece906129df565b91905055505b50565b7f442a94f1a1fac79af32856af2a64f63648cfa2ef3b98610a5bb7cbec4cee6985610f0181611488565b81600a60008573ffffffffffffffffffffffffffffffffffffffff1673ffffffffffffffffffffffffffffffffffffffff16815260200190815260200160002060006101000a81548160ff0219169083151502179055508273ffffffffffffffffffffffffffffffffffffffff167fd17e29b9185a00800171e680c627983f284cdf937b14ea98ef64d9b44a72f2fc83604051610f9e9190612134565b60405180910390a2505050565b7f442a94f1a1fac79af32856af2a64f63648cfa2ef3b98610a5bb7cbec4cee6985610fd581611488565b81600960008573ffffffffffffffffffffffffffffffffffffffff1673ffffffffffffffffffffffffffffffffffffffff16815260200190815260200160002060006101000a81548160ff0219169083151502179055508273ffffffffffffffffffffffffffffffffffffffff167f2ee033af7d327c8c4a6162f5aea55825fe392020be22144c8788a16ae68ea07f836040516110729190612134565b60405180910390a2505050565b600e8060000180546110909061271b565b80601f01602080910402602001604051908101604052809291908181526020018280546110bc9061271b565b80156111095780601f106110de57610100808354040283529160200191611109565b820191906000526020600020905b8154815290600101906020018083116110ec57829003601f168201915b5050505050908060010154908060020154908060030160009054906101000a900460ff16905084565b60008060008373ffffffffffffffffffffffffffffffffffffffff1673ffffffffffffffffffffffffffffffffffffffff168152602001908152602001600020549050919050565b600a6020528060005260406000206000915054906101000a900460ff1681565b60006005600084815260200190815260200160002060000160008373ffffffffffffffffffffffffffffffffffffffff1673ffffffffffffffffffffffffffffffffffffffff16815260200190815260200160002060009054906101000a900460ff16905092915050565b6060600480546112149061271b565b80601f01602080910402602001604051908101604052809291908181526020018280546112409061271b565b801561128d5780601f106112625761010080835404028352916020019161128d565b820191906000526020600020905b81548152906001019060200180831161127057829003601f168201915b5050505050905090565b600760009054906101000a900473ffffffffffffffffffffffffffffffffffffffff1681565b6000806112c861088d565b9050600081036112dc576000915050611304565b80670de0b6b3a7640000600e600101546112f69190612a08565b6113009190612a79565b9150505b90565b6000801b81565b60008061131961149c565b905061132681858561154b565b600191505092915050565b600d6020528060005260406000206000915054906101000a900460ff1681565b7f9f2df0fed2c77648de5860a4cc508cd0818c85b8b8a1ab4ceeef8d981c8956a681565b61137e826108f0565b61138781611488565b6113918383611731565b50505050565b6000600160008473ffffffffffffffffffffffffffffffffffffffff1673ffffffffffffffffffffffffffffffffffffffff16815260200190815260200160002060008373ffffffffffffffffffffffffffffffffffffffff1673ffffffffffffffffffffffffffffffffffffffff16815260200190815260200160002054905092915050565b60007f01ffc9a7000000000000000000000000000000000000000000000000000000007bffffffffffffffffffffffffffffffffffffffffffffffffffffffff1916827bffffffffffffffffffffffffffffffffffffffffffffffffffffffff1916149050919050565b6114998161149461149c565b611a42565b50565b600033905090565b6114b18383836001611a93565b505050565b60006114c28484611397565b90507fffffffffffffffffffffffffffffffffffffffffffffffffffffffffffffffff8110156115455781811015611535578281836040517ffb8f41b200000000000000000000000000000000000000000000000000000000815260040161152c93929190612aaa565b60405180910390fd5b61154484848484036000611a93565b5b50505050565b600073ffffffffffffffffffffffffffffffffffffffff168373ffffffffffffffffffffffffffffffffffffffff16036115bd5760006040517f96c6fd1e0000000000000000000000000000000000000000000000000000000081526004016115b49190612691565b60405180910390fd5b600073ffffffffffffffffffffffffffffffffffffffff168273ffffffffffffffffffffffffffffffffffffffff160361162f5760006040517fec442f050000000000000000000000000000000000000000000000000000000081526004016116269190612691565b60405180910390fd5b61163a838383611824565b505050565b600061164b838361119a565b6117265760016005600085815260200190815260200160002060000160008473ffffffffffffffffffffffffffffffffffffffff1673ffffffffffffffffffffffffffffffffffffffff16815260200190815260200160002060006101000a81548160ff0219169083151502179055506116c361149c565b73ffffffffffffffffffffffffffffffffffffffff168273ffffffffffffffffffffffffffffffffffffffff16847f2f8788117e7eff1d82e926ec794901d17c78024a50270940304540a733656f0d60405160405180910390a46001905061172b565b600090505b92915050565b600061173d838361119a565b156118195760006005600085815260200190815260200160002060000160008473ffffffffffffffffffffffffffffffffffffffff1673ffffffffffffffffffffffffffffffffffffffff16815260200190815260200160002060006101000a81548160ff0219169083151502179055506117b661149c565b73ffffffffffffffffffffffffffffffffffffffff168273ffffffffffffffffffffffffffffffffffffffff16847ff6391f5c32d9c69d2a47ea670b442974b53935d1edc7fd64eb21e047a839171b60405160405180910390a46001905061181e565b600090505b92915050565b600073ffffffffffffffffffffffffffffffffffffffff168373ffffffffffffffffffffffffffffffffffffffff161415801561188e5750600073ffffffffffffffffffffffffffffffffffffffff168273ffffffffffffffffffffffffffffffffffffffff1614155b156118de5761189e838383611c6a565b6118dd576040517f08c379a00000000000000000000000000000000000000000000000000000000081526004016118d490612b2d565b60405180910390fd5b5b6118e9838383611e65565b505050565b60026006540361192a576040517f3ee5aeb500000000000000000000000000000000000000000000000000000000815260040160405180910390fd5b6002600681905550565b600073ffffffffffffffffffffffffffffffffffffffff168273ffffffffffffffffffffffffffffffffffffffff16036119a65760006040517fec442f0500000000000000000000000000000000000000000000000000000000815260040161199d9190612691565b60405180910390fd5b6119b260008383611824565b5050565b6001600681905550565b600073ffffffffffffffffffffffffffffffffffffffff168273ffffffffffffffffffffffffffffffffffffffff1603611a325760006040517f96c6fd1e000000000000000000000000000000000000000000000000000000008152600401611a299190612691565b60405180910390fd5b611a3e82600083611824565b5050565b611a4c828261119a565b611a8f5780826040517fe2517d3f000000000000000000000000000000000000000000000000000000008152600401611a86929190612b4d565b60405180910390fd5b5050565b600073ffffffffffffffffffffffffffffffffffffffff168473ffffffffffffffffffffffffffffffffffffffff1603611b055760006040517fe602df05000000000000000000000000000000000000000000000000000000008152600401611afc9190612691565b60405180910390fd5b600073ffffffffffffffffffffffffffffffffffffffff168373ffffffffffffffffffffffffffffffffffffffff1603611b775760006040517f94280d62000000000000000000000000000000000000000000000000000000008152600401611b6e9190612691565b60405180910390fd5b81600160008673ffffffffffffffffffffffffffffffffffffffff1673ffffffffffffffffffffffffffffffffffffffff16815260200190815260200160002060008573ffffffffffffffffffffffffffffffffffffffff1673ffffffffffffffffffffffffffffffffffffffff168152602001908152602001600020819055508015611c64578273ffffffffffffffffffffffffffffffffffffffff168473ffffffffffffffffffffffffffffffffffffffff167f8c5be1e5ebec7d5bd14f71427d1e84f3dd0314c0f7b2291e5b200ac8c7c3b92584604051611c5b9190612371565b60405180910390a35b50505050565b6000600e60030160009054906101000a900460ff1615611c8d5760009050611e5e565b600a60008573ffffffffffffffffffffffffffffffffffffffff1673ffffffffffffffffffffffffffffffffffffffff16815260200190815260200160002060009054906101000a900460ff1680611d2e5750600a60008473ffffffffffffffffffffffffffffffffffffffff1673ffffffffffffffffffffffffffffffffffffffff16815260200190815260200160002060009054906101000a900460ff165b15611d3c5760009050611e5e565b600960008573ffffffffffffffffffffffffffffffffffffffff1673ffffffffffffffffffffffffffffffffffffffff16815260200190815260200160002060009054906101000a900460ff161580611ddf5750600960008473ffffffffffffffffffffffffffffffffffffffff1673ffffffffffffffffffffffffffffffffffffffff16815260200190815260200160002060009054906101000a900460ff16155b15611ded5760009050611e5e565b600d60008473ffffffffffffffffffffffffffffffffffffffff1673ffffffffffffffffffffffffffffffffffffffff16815260200190815260200160002060009054906101000a900460ff16158015611e4b5750600b54600c5410155b15611e595760009050611e5e565b600190505b9392505050565b600073ffffffffffffffffffffffffffffffffffffffff168373ffffffffffffffffffffffffffffffffffffffff1603611eb7578060026000828254611eab9190612b76565b92505081905550611f8a565b60008060008573ffffffffffffffffffffffffffffffffffffffff1673ffffffffffffffffffffffffffffffffffffffff16815260200190815260200160002054905081811015611f43578381836040517fe450d38c000000000000000000000000000000000000000000000000000000008152600401611f3a93929190612aaa565b60405180910390fd5b8181036000808673ffffffffffffffffffffffffffffffffffffffff1673ffffffffffffffffffffffffffffffffffffffff16815260200190815260200160002081905550505b600073ffffffffffffffffffffffffffffffffffffffff168273ffffffffffffffffffffffffffffffffffffffff1603611fd35780600260008282540392505081905550612020565b806000808473ffffffffffffffffffffffffffffffffffffffff1673ffffffffffffffffffffffffffffffffffffffff168152602001908152602001600020600082825401925050819055505b8173ffffffffffffffffffffffffffffffffffffffff168373ffffffffffffffffffffffffffffffffffffffff167fddf252ad1be2c89b69c2b068fc378daa952ba7f163c4a11628f55a4df523b3ef8360405161207d9190612371565b60405180910390a3505050565b600080fd5b600080fd5b60007fffffffff0000000000000000000000000000000000000000000000000000000082169050919050565b6120c981612094565b81146120d457600080fd5b50565b6000813590506120e6816120c0565b92915050565b6000602082840312156121025761210161208a565b5b6000612110848285016120d7565b91505092915050565b60008115159050919050565b61212e81612119565b82525050565b60006020820190506121496000830184612125565b92915050565b61215881612119565b811461216357600080fd5b50565b6000813590506121758161214f565b92915050565b6000602082840312156121915761219061208a565b5b600061219f84828501612166565b91505092915050565b6000819050919050565b6121bb816121a8565b82525050565b60006020820190506121d660008301846121b2565b92915050565b600081519050919050565b600082825260208201905092915050565b60005b838110156122165780820151818401526020810190506121fb565b60008484015250505050565b6000601f19601f8301169050919050565b600061223e826121dc565b61224881856121e7565b93506122588185602086016121f8565b61226181612222565b840191505092915050565b600060208201905081810360008301526122868184612233565b905092915050565b600073ffffffffffffffffffffffffffffffffffffffff82169050919050565b60006122b98261228e565b9050919050565b6122c9816122ae565b81146122d457600080fd5b50565b6000813590506122e6816122c0565b92915050565b6000819050919050565b6122ff816122ec565b811461230a57600080fd5b50565b60008135905061231c816122f6565b92915050565b600080604083850312156123395761233861208a565b5b6000612347858286016122d7565b92505060206123588582860161230d565b9150509250929050565b61236b816122ec565b82525050565b60006020820190506123866000830184612362565b92915050565b6000602082840312156123a2576123a161208a565b5b60006123b08482850161230d565b91505092915050565b6000806000606084860312156123d2576123d161208a565b5b60006123e0868287016122d7565b93505060206123f1868287016122d7565b92505060406124028682870161230d565b9150509250925092565b612415816121a8565b811461242057600080fd5b50565b6000813590506124328161240c565b92915050565b60006020828403121561244e5761244d61208a565b5b600061245c84828501612423565b91505092915050565b6000806040838503121561247c5761247b61208a565b5b600061248a85828601612423565b925050602061249b858286016122d7565b9150509250929050565b600060ff82169050919050565b6124bb816124a5565b82525050565b60006020820190506124d660008301846124b2565b92915050565b6000602082840312156124f2576124f161208a565b5b6000612500848285016122d7565b91505092915050565b600080fd5b600080fd5b600080fd5b60008083601f84011261252e5761252d612509565b5b8235905067ffffffffffffffff81111561254b5761254a61250e565b5b60208301915083600182028301111561256757612566612513565b5b9250929050565b60008060008060006080868803121561258a5761258961208a565b5b6000612598888289016122d7565b95505060206125a9888289016122d7565b94505060406125ba8882890161230d565b935050606086013567ffffffffffffffff8111156125db576125da61208f565b5b6125e788828901612518565b92509250509295509295909350565b6000806040838503121561260d5761260c61208a565b5b600061261b858286016122d7565b925050602061262c85828601612166565b9150509250929050565b600060808201905081810360008301526126508187612233565b905061265f6020830186612362565b61266c6040830185612362565b6126796060830184612125565b95945050505050565b61268b816122ae565b82525050565b60006020820190506126a66000830184612682565b92915050565b600080604083850312156126c3576126c261208a565b5b60006126d1858286016122d7565b92505060206126e2858286016122d7565b9150509250929050565b7f4e487b7100000000000000000000000000000000000000000000000000000000600052602260045260246000fd5b6000600282049050600182168061273357607f821691505b602082108103612746576127456126ec565b5b50919050565b7f526561736f6e2072657175697265640000000000000000000000000000000000600082015250565b6000612782600f836121e7565b915061278d8261274c565b602082019050919050565b600060208201905081810360008301526127b181612775565b9050919050565b7f546f6b656e206973207061757365640000000000000000000000000000000000600082015250565b60006127ee600f836121e7565b91506127f9826127b8565b602082019050919050565b6000602082019050818103600083015261281d816127e1565b9050919050565b7f496e766573746f72206e6f742076657269666965640000000000000000000000600082015250565b600061285a6015836121e7565b915061286582612824565b602082019050919050565b600060208201905081810360008301526128898161284d565b9050919050565b7f57616c6c65742069732066726f7a656e00000000000000000000000000000000600082015250565b60006128c66010836121e7565b91506128d182612890565b602082019050919050565b600060208201905081810360008301526128f5816128b9565b9050919050565b7f4d617820696e766573746f727320726561636865640000000000000000000000600082015250565b60006129326015836121e7565b915061293d826128fc565b602082019050919050565b6000602082019050818103600083015261296181612925565b9050919050565b7f4e487b7100000000000000000000000000000000000000000000000000000000600052601160045260246000fd5b60006129a2826122ec565b91507fffffffffffffffffffffffffffffffffffffffffffffffffffffffffffffffff82036129d4576129d3612968565b5b600182019050919050565b60006129ea826122ec565b9150600082036129fd576129fc612968565b5b600182039050919050565b6000612a13826122ec565b9150612a1e836122ec565b9250828202612a2c816122ec565b91508282048414831517612a4357612a42612968565b5b5092915050565b7f4e487b7100000000000000000000000000000000000000000000000000000000600052601260045260246000fd5b6000612a84826122ec565b9150612a8f836122ec565b925082612a9f57612a9e612a4a565b5b828204905092915050565b6000606082019050612abf6000830186612682565b612acc6020830185612362565b612ad96040830184612362565b949350505050565b7f5472616e73666572206e6f7420636f6d706c69616e7400000000000000000000600082015250565b6000612b176016836121e7565b9150612b2282612ae1565b602082019050919050565b60006020820190508181036000830152612b4681612b0a565b9050919050565b6000604082019050612b626000830185612682565b612b6f60208301846121b2565b9392505050565b6000612b81826122ec565b9150612b8c836122ec565b9250828201905080821115612ba457612ba3612968565b5b9291505056fea26469706673582212209428fdd05ed7b91f94854e7c1e302b5d8754c7009ff0a93252749a30a7360b1f64736f6c63430008140033",
  "linkReferences": {},
  "deployedLinkReferences": {}
}